:020000040000FA
:0400000000002428B0
:080008000830A0002F30A10018
:100010000330A200A00B0D28A10B0F28A20B0A2869
:1000200000000000000008008316031306309F0044
:100030003030850083120313850183160313860174
:1000400083120313860108001420051A2B28851E2D
:10005000252838282528A30323088600FF3C0420F0
:10006000031D25283328A4032408850004202528FF
:10007000A30A23088600003C0420031D25284028ED
:0A008000A40A240885000420382893
:02400E00313F40
:00000001FF
